# tcpdump -XX -i eth0

11:51:18.974360 IP 172.16.25.126.ssh > 172.16.25.125.apwi-rxspooler: Flags [P.], seq 3509235537:3509235733, ack 3652638190, win 18760, length 196
        0x0000:  b8ac 6f2e 57b3 0001 6c99 1468 0800 4510  ..o.W...l..h..E.
        0x0010:  00ec 8783 4000 4006 275d ac10 197e ac10  ....@.@.']...~..
        0x0020:  197d 0016 1129 d12a af51 d9b6 d5ee 5018  .}...).*.Q....P.
        0x0030:  4948 8bfa 0000 0e12 ea4d 22d1 67c0 f123  IH.......M".g..#
        0x0040:  9013 8f68 aa70 29f3 2efc c512 5660 4fe8  ...h.p).....V`O.
        0x0050:  590a d631 f939 dd06 e36a 69ed cac2 95b6  Y..1.9...ji.....
        0x0060:  f8ba b42a 344b 8e56 a5c4 b3a2 ed82 c3a1  ...*4K.V........
        0x0070:  80c8 7980 11ac 9bd7 5b01 18d5 8180 4536  ..y.....[.....E6
        0x0080:  30fd 4f6d 4190 f66f 2e24 e877 ed23 8eb0  0.OmA..o.$.w.#..
        0x0090:  5a1d f3ec 4be4 e0fb 8553 7c85 17d9 866f  Z...K....S|....o
        0x00a0:  c279 0d9c 8f9d 445b 7b01 81eb 1b63 7f12  .y....D[{....c..
        0x00b0:  71b3 1357 52c7 cf00 95c6 c9f6 63b1 ca51  q..WR.......c..Q
        0x00c0:  0ac6 456e 0620 38e6 10cb 6139 fb2a a756  ..En..8...a9.*.V
        0x00d0:  37d6 c5f3 f5f3 d8e8 3316 d14f d7ab fd93  7.......3..O....
        0x00e0:  1137 61c1 6a5c b4d1 ddda 380a f782 d983  .7a.j\....8.....
        0x00f0:  62ff a5a9 bb39 4f80 668a                 b....9O.f.
11:51:18.974759 IP 172.16.25.126.60952 > mddc-01.midcorp.mid-day.com.domain: 14620+ PTR? 125.25.16.172.in-addr.arpa. (44)
        0x0000:  0014 5e67 261d 0001 6c99 1468 0800 4500  ..^g&...l..h..E.
        0x0010:  0048 5a83 4000 4011 5e25 ac10 197e ac10  .HZ.@.@.^%...~..
        0x0020:  105e ee18 0035 0034 8242 391c 0100 0001  .^...5.4.B9.....
        0x0030:  0000 0000 0000 0331 3235 0232 3502 3136  .......125.25.16
        0x0040:  0331 3732 0769 6e2d 6164 6472 0461 7270  .172.in-addr.arp
        0x0050:  6100 000c 0001                           a.....